:020000040800F2
:1000000000000220D1160008E1040008E304000803
:10001000E5040008E7040008E90400080000000007
:10002000000000000000000000000000EB040008D9
:10003000ED04000800000000EF040008F1040008CF
:1000400021170008211700082117000821170008B0
:1000500021170008211700082117000821170008A0
:10006000211700087D160008211700082117000835
:100070002117000821170008211700082117000880
:1000800021170008211700082117000800000000B0
:100090000000000000000000000000002117000820
:1000A0002117000821170008211700082117000850
:1000B0005916000821170008211700082117000809
:1000C0002117000821170008211700082117000830
:1000D0002117000821170008211700080000000060
:1000E0002117000821170008211700080000000050
:1000F00000000000000000000000000021170008C0
:10010000000000002117000821170008211700082F
:1001100000000000000000000000000000000000DF
:1001200021170008211700082117000821170008CF
:10013000211700080000000000000000000000007F
:10014000000000000000000000000000211700086F
:10015000211700082117000821170008211700089F
:10016000211700082117000800000000000000000F
:10017000000000000000000000000000000000007F
:10018000000000002117000800000000000000002F
:080190002117000821170008E7
:1001980010B5054C237833B9044B13B10448AFF3B9
:1001A80000800123237010BD0C0000200000000017
:1001B8007C17000808B5034B1BB103490348AFF38C
:1001C800008008BD00000000100000207C17000817
:1001D80053B94AB9002908BF00281CBF4FF0FF31A6
:1001E8004FF0FF3000F076B9ADF1080C6DE904CEA0
:1001F80000F006F8DDF804E0DDE9022304B07047FA
:100208002DE9F047089E0D4604468846002B4DD13F
:100218008A42944668D9B2FA82F252B101FA02F3DC
:10022800C2F1200120FA01F10CFA02FC41EA0308AC
:1002380094404FEA1C41B8FBF1F71FFA8CFE01FB12
:10024800178807FB0EF0230C43EA084398420AD9A3
:100258001CEB030307F1FF3580F01E81984240F242
:100268001B81023F63441B1AB3FBF1F001FB1033FF
:1002780000FB0EFEA4B244EA0344A6450AD91CEBCF
:10028800040400F1FF3380F00981A64540F206819D
:10029800644402380021A4EB0E0440EA07401EB172
:1002A8000023D440C6E90043BDE8F0878B4208D953
:1002B800002E00F0EE800021C6E900050846BDE8E2
:1002C800F087B3FA83F100294AD1AB4202D38242C4
:1002D80000F2FC80841A65EB030301209846002E87
:1002E800E2D0C6E90048DFE702B9FFDEB2FA82F2DF
:1002F800002A40F09180A1EB0C0001214FEA1C4735
:100308001FFA8CFEB0FBF7F307FB1300250C45EA38
:1003180000450EFB03F0A84208D91CEB050503F1C4
:10032800FF3802D2A84200F2CE8043462D1AB5FB10
:10033800F7F007FB10550EFB00FEA4B244EA054493
:10034800A64508D91CEB040400F1FF3502D2A645E6
:1003580000F2B6802846A4EB0E0440EA03409EE76C
:10036800C1F120078B4022FA07FC4CEA030C25FA5E
:1003780007FA4FEA1C49BAFBF9F820FA07F309FB18
:1003880018AA8D401FFA8CFE1D4300FA01F308FBE2
:100398000EF02C0C44EA0A44A04202FA01F20BD9EE
:1003A8001CEB040408F1FF3A80F08880A04240F278
:1003B8008580A8F102086444241AB4FBF9F009FB0B
:1003C800104400FB0EFEADB245EA0444A64508D928
:1003D8001CEB040400F1FF356CD2A6456AD902383B
:1003E800644440EA0840A0FB0295A4EB0E04AC422A
:1003F800C846AE4656D353D0002E69D0B3EB080298
:1004080064EB0E0422FA01F304FA07F71F43CC4009
:10041800C6E90074002147E70CFA02FCC2F120018A
:1004280025FA01F34FEA1C4720FA01F195400D43E4
:10043800B3FBF7F107FB11331FFA8CFE280C40EAD7
:10044800034001FB0EF3834204FA02F408D91CEBC3
:10045800000001F1FF382FD283422DD902396044C0
:10046800C01AB0FBF7F307FB1300ADB245EA00452D
:1004780003FB0EF0A84208D91CEB050503F1FF3871
:1004880016D2A84214D9023B6544281A43EA01410E
:1004980038E73146304607E72F46E4E61846F9E6DE
:1004A8004B45A9D2B9EB020865EB0C0E0138A3E75E
:1004B8004346EAE7284694E74146D1E7D0467BE73A
:1004C8006444023847E7023B65442FE7084606E7DD
:1004D8003146E9E6704700BFFEE7FEE7FEE7FEE7C4
:1004E800FEE770477047704708B500F0D5FD08BDB6
:1004F80082B0002100910B4B5A6C42F480425A643E
:100508005A6C02F480420092009A01911A6C42F0EF
:1005180080521A641B6C03F080530193019B02B054
:10052800704700BF0038024030B4036A23F001036B
:100538000362036A4468826922F073020D682A43E1
:1005480023F002030D692B4323F001034D682B436D
:100558000F4DA84207D044608261CA6842630362B3
:10056800002030BC704723F008034D6943EA850337
:1005780023F004038D6843EA850324F480748D69AD
:100588002C4324F40074CD6944EA4504E3E700BF32
:100598000000014030B4036A23F010030362036AC9
:1005A8004468826922F4E6420D6842EA052223F093
:1005B80020030D6943EA051323F010034D6843EA4D
:1005C8000513104DA84207D044608261CA6882634F
:1005D8000362002030BC704723F080034D6943EA72
:1005E800851323F040038D6843EA851324F480645F
:1005F8008D6944EA850424F40064CD6944EAC5049D
:10060800E2E700BF0000014030B4036A23F48073BE
:100618000362036A4468C26922F073020D682A43C0
:1006280023F400730D6943EA052323F480734D68AE
:1006380043EA05230F4DA84207D04460C261CA6847
:10064800C2630362002030BC704723F400634D6925
:1006580043EA852323F480638D6843EA852324F4E1
:1006680080548D6944EA051424F40054CD6944EAA1
:100678004514E2E70000014030B4036A23F48053D4
:100688000362036A4468C26922F4E6420D6842EADA
:10069800052223F400530D6943EA053323F48053FC
:1006A8004D6843EA0533084DA84207D04460C2614B
:1006B800CA6802640362002030BC704724F4804496
:1006C8008D6944EA8514F1E7000001400368244A73
:1006D80090420ED0B0F1804F0BD0A2F57C429042F0
:1006E80007D002F58062904203D002F58062904202
:1006F80003D123F070034A681343194A90421AD071
:10070800B0F1804F17D0A2F57C42904213D002F589
:10071800806290420FD002F5806290420BD002F5C1
:100728009A32904207D002F58062904203D002F5D7
:100738008062904203D123F44073CA681343036074
:100748008B68C3620B888362054B984205D0436966
:1007580043F001034361002070470B690363F6E728
:100768000000014008B50B461146B3F5807F14D050
:1007780008D8012B0ED0102B02D1FFF70BFF08E091
:10078800012006E0B3F5805F02D1FFF775FF00E0B6
:10079800012008BDFFF7C8FEFBE7FFF735FFF8E7C4
:1007A8000B7B8A68134323F480634A68134323F45A
:1007B80000630A68134323F48053CA89134323F45C
:1007C80000530A69134323F480434A69134343647B
:1007D80000207047F0B40A6892FAA2F212B1B2FA95
:1007E80082F264E0202262E08E68856893FAA3F4BE
:1007F800DCB1B4FA84F464004FF0030C0CFA04F48E
:1008080025EA040593FAA3F48CB1B4FA84F46400DD
:1008180006FA04F42C438460CD68446824EA03048F
:1008280003FB05F52C43446050E02024E3E7202433
:10083800EDE7202452E020245DE0202473E020240A
:100848007DE04F69466A1C0A94FAA4F5002D7CD015
:10085800B5FA85F5AD004FF00F0C0CFA05F526EA50
:10086800050594FAA4F4002C71D0B4FA84F4A40019
:1008780007FA04F42C4344624E68056893FAA3F41B
:10088800002C66D0B4FA84F464004FF0030C0CFA20
:1008980004F425EA040493FAA3F3002B5BD0B3FA1B
:1008A80083F35B0006FA03F32343036001320B680A
:1008B80033FA02F451D04FF0010C0CFA02FC1CEA96
:1008C8000303F3D04C68013C012C8DD90E69C5682F
:1008D80093FAA3F4002CACD0B4FA84F464004FF07B
:1008E800030C0CFA04F425EA040593FAA3F4002C8B
:1008F800A1D0B4FA84F4640006FA04F42C43C4606A
:100908004C68022CB8D193FAA3F4002C99D0B4FA0D
:1009180084F4072C95D84E69056A93FAA3F4002C41
:100928008BD0B4FA84F4A4000F2707FA04F425EA5C
:10093800040593FAA3F4002C81D0B4FA84F4A4003B
:1009480006FA04F42C43046296E7202582E7202463
:100958008DE7202498E72023A3E70020F0BC704708
:10096800002800F0E08170B582B00446036813F0F7
:10097800010F3BD09F4B9B6803F00C03042B2CD03A
:100988009C4B9B6803F00C03082B21D06368B3F5DC
:10099800803F4FD0B3F5A02F52D0964B1A6822F45F
:1009A80080321A601A6822F480221A606368002B69
:1009B80050D000F07DFB05468E4B1B6813F4003FBA
:1009C80014D100F075FB401B6428F5D90320B1E170
:1009D800884B5B6813F4800FD8D0864B1B6813F4E0
:1009E800003F03D06368002B00F09F81236813F059
:1009F800020F54D07F4B9B6813F00C0F3ED07D4BF9
:100A08009B6803F00C03082B33D0E368002B68D0F5
:100A1800794B01221A6000F04BFB0546754B1B68A9
:100A280013F0020F54D100F043FB401B0228F5D904
:100A380003207FE16F4A136843F480331360B5E7FE
:100A48006C4B1A6842F480221A601A6842F48032A9
:100A58001A60ABE700F02CFB0546664B1B6813F4E5
:100A6800003FC3D000F024FB401B6428F5D90320C5
:100A780060E1604B5B6813F4800FC6D15D4B1B6867
:100A880013F0020F03D0E368012B40F05081594A5C
:100A9800136823F0F803216943EAC103136023684C
:100AA80013F0080F42D063696BB3534B0122C3F8AC
:100AB800802E00F0FDFA05464E4B5B6F13F0020FD7
:100AC80034D100F0F5FA401B0228F5D9032031E1B2
:100AD800484A136823F0F803216943EAC103136005
:100AE800DDE7454B00221A6000F0E2FA0546414B6B
:100AF8001B6813F0020FD2D000F0DAFA401B02286C
:100B0800F5D9032016E13C4B0022C3F8802E00F0F3
:100B1800CFFA0546374B5B6F13F0020F06D000F093
:100B2800C7FA401B0228F5D9032003E1236813F014
:100B3800040F77D02F4B1B6C13F0805F33D1002349
:100B480001932C4B1A6C42F080521A641B6C03F010
:100B580080530193019B0125284B1B6813F4807F68
:100B680023D0A368012B34D0052B38D0214B1A6F22
:100B780022F001021A671A6F22F004021A67A368AA
:100B8800002B3DD000F094FA06461A4B1B6F13F069
:100B9800020F46D100F08CFA801B41F2883398424C
:100BA800F3D90320C6E00025D6E7144A136843F4B6
:100BB8008073136000F07CFA0646104B1B6813F430
:100BC800807FCED100F074FA801B0228F5D903206B
:100BD800B0E0084A136F43F001031367CFE7054BF2
:100BE8001A6F42F004021A671A6F42F001021A677C
:100BF800C5E700BF003802400000474200700040CF
:100C080000F056FA0646524B1B6F13F0020F08D03D
:100C180000F04EFA801B41F288339842F3D9032042
:100C280088E0EDB9A369002B00F08380484A9268F8
:100C380002F00C02082A51D0022B17D0454B002293
:100C48001A6600F035FA0446414B1B6813F0007F22
:100C580042D000F02DFA001B0228F5D9032069E0E4
:100C68003B4A136C23F080531364DBE7394B0022B3
:100C78001A6600F01DFA0546354B1B6813F0007F15
:100C880006D000F015FA401B0228F5D9032051E0E0
:100C9800E369226A1343626A43EA8213A26A52082A
:100CA800013A43EA0243E26A43EA0263284A53608C
:100CB800284B01221A6600F0FBF90446244B1B68F6
:100CC80013F0007F06D100F0F3F9001B0228F5D9D4
:100CD80003202FE000202DE000202BE0012B2BD05B
:100CE8001B4B5B6803F48001E269914226D103F053
:100CF8003F02216A8A4223D1616A47F6C0721A40CC
:100D0800B2EB811F1ED103F44031A26A5208013AA6
:100D1800B1EB024F18D103F07063E26AB3EB026FD4
:100D280014D1002006E001207047012002E00120D4
:100D380000E0002002B070BD0120FBE70120F9E7C8
:100D48000120F7E70120F5E70120F3E70120F1E7AB
:100D5800003802400000474208B5254B9B6803F065
:100D68000C03042B3FD0082B3FD1214B5A6802F0CB
:100D78003F025B6813F4800F12D01D4B5968C1F312
:100D880088111C480023A1FB0001FFF721FA184B2A
:100D98005B68C3F3014301335B00B0FBF3F025E06C
:100DA800134B5968C1F3881C4FEA4C11B1EB0C0086
:100DB8006EEB0E0E4FEA8E1343EA90638101091A17
:100DC80063EB0E03DB0043EA5173C90011EB0C0C13
:100DD80043F10003990200234FEA8C2041EA9C5119
:100DE800FFF7F6F9D3E7034800E0034808BD00BF62
:100DF8000038024040787D010024F400002800F00B
:100E08009B8070B50D4604464F4B1B6803F00703E3
:100E18008B4208D2CBB24C4A1370136803F0070315
:100E28008B4240F08B80236813F0020F17D013F029
:100E3800040F04D0454A936843F4E0539360236851
:100E480013F0080F04D0414A936843F46043936059
:100E58003E4A936823F0F003A1680B43936023682C
:100E680013F0010F32D06368012B21D09A1E012A9A
:100E780025D9364A126812F0020F61D033498A68C0
:100E880022F0030213438B6000F012F906462F4B41
:100E98009B6803F00C036268B3EB820F16D000F076
:100EA80007F9801B41F288339842F0D9032042E0C9
:100EB800264A126812F4003FE0D101203BE0234AA1
:100EC800126812F0007FD9D1012034E01E4B1B6854
:100ED80003F00703AB4207D9EAB21B4B1A701B6831
:100EE80003F00703AB422DD1236813F0040F06D09B
:100EF800164A936823F4E053E1680B439360236830
:100F080013F0080F07D0114A936823F4604321694E
:100F180043EAC1039360FFF71FFF0C4B9B68C3F3C1
:100F280003130B4AD35CD8400A4B18600A4B186865
:100F380000F072F8002070BD012070470120FAE728
:100F48000120F8E70120F6E7003C024000380240A3
:100F5800941700080800002004000020074AD368FE
:100F680023F4E0631B041B0C000200F4E06003435D
:100F780043F0BF6343F40033D360704700ED00E0F3
:100F880000B5194BDB68C3F30223C3F1070CBCF1AE
:100F9800040F28BF4FF0040C03F1040EBEF1060F36
:100FA80018D9033B4FF0FF3E0EFA0CFC21EA0C0166
:100FB80099400EFA03F322EA0303194300280BDBD6
:100FC8000901C9B200F1604000F5614080F80013E2
:100FD8005DF804FB0023E5E700F00F000901C9B242
:100FE800024B1954F4E700BF00ED00E014ED00E0F7
:100FF8000138B0F1807F0BD24FF0E0235861054AE9
:10100800F02182F823100020986107221A617047A6
:101018000120704700ED00E010B504460E4B18782B
:101028004FF47A73B3FBF0F30C4A1068B0FBF3F09B
:10103800FFF7DEFF68B90F2C01D901200AE0002272
:1010480021464FF0FF30FFF79BFF054B1C60002047
:1010580000E0012010BD00BF0000002008000020B3
:101068000400002008B50B4B1A6842F400721A609D
:101078001A6842F480621A601A6842F480721A6030
:101088000320FFF76BFF0F20FFF7C6FFFFF730FACB
:10109800002008BD003C0240034A1168034B1B783E
:1010A8000B441360704700BF280000200000002098
:1010B800014B1868704700BF2800002010B4034691
:1010C8000079002853D01A68002A5DD05879012881
:1010D80018D0022821D058B101209A79002A51D07D
:1010E800022A2FD0032A38D0012A20D0012049E033
:1010F80026494C6824EA02024A601A680C682243AE
:101108000A60EAE72149086820EA02020A601A68C8
:10111800486802434A600020DFE71C490868024328
:101128000A601A68486802434A600020D5E71C68CC
:10113800164AD16821EA0401D1601B6891680B4303
:1011480093601FE01C68114A916821EA04019160CC
:101158001B68D1680B43D36014E019680B4A946884
:10116800214391601B68D1680B43D3600AE0074AAA
:1011780011681C6821EA040111601968536823EAA0
:101188000103536010BC70470020FBE7003C01409E
:101198007047000010B58CB000230A930B9304939A
:1011A80005930693079308930993404B1A6B42F0F3
:1011B80004021A631A6B02F004020392039A1A6B70
:1011C80042F001021A631A6B02F001020292029ABB
:1011D8001A6B42F002021A631B6B03F002030193BD
:1011E800019B334B4FF000729A61324A936823F4A3
:1011F8007043936008240A9401238DF82C308DF8ED
:101208002E300AA8FFF75AFF2B4BDB6894FAA4F498
:10121800002C45D0B4FA84F46400032202FA04F4E2
:1012280023EA0404244BDC601A68082393FAA3F326
:10123800002B37D0B3FA83F35B00032101FA03F3E1
:1012480022EA03031C4A13604FF40073049301233A
:101258000593002306930793089304A91448FFF7FE
:10126800B9FA164BDA68C2F30222C2F10703042B5B
:1012780028BF04231946131D062B15D9033A4FF02E
:10128800FF338B40DB4303F0010393401B01DBB2C8
:101298000B4A82F809334FF4007313600CB010BD89
:1012A8002024B9E72023C7E70022E8E700380240F6
:1012B80000040240003801400000024000ED00E058
:1012C80000E100E0F0B59DB000241794189419943B
:1012D8001A941B94202221460FA800F043FA09947F
:1012E8000A940B940C940D940E940394049405940E
:1012F800069407940894324E736C43F001037364A8
:10130800736C03F001030293029B602718974FF652
:10131800FF7319932B4D17A92846FFF7D7F92B68A8
:1013280023F080032B60AB6823F4804323F007038A
:10133800AB60AB6943F00803AB610F97109411944D
:10134800129413941494159416940FAA0121284604
:10135800FFF708FA1C4A136823F0040313606B684C
:1013680023F070036B60AB6823F08003AB600994D3
:101378000A940B943C238DF83030ADF832404FF48A
:1013880000530D930E9409A92846FFF709FA336B09
:1013980043F001033363336B03F001030193019BB3
:1013A8004FF4C0730393022304930594069407949F
:1013B8000123089303A90548FFF70CFA1DB0F0BDF7
:1013C80000380240000001401800014000000240BF
:1013D80000B587B000230193029303930493059308
:1013E8001A4A116C41F001011164126C02F00102F9
:1013F8000092009A164AD268164A82F81C334FF0B7
:1014080080511160ADF8043002934FF0FF3203921F
:10141800049301A94FF08040FFF758F94FF080433B
:101428001A6822F080021A609A6822F4804222F038
:1014380007029A605A6822F070025A609A6822F08D
:1014480080029A6007B05DF804FB00BF00380240D4
:1014580000ED00E000E100E0074B4FF41662DA62AD
:1014680000225A635A6C22F400425A641A6842F005
:1014780001021A60704700BF000001404FF080432E
:10148800DA6842F00102DA601A6842F001021A6072
:10149800124BDA68C2F30222C2F10703042B28BFF9
:1014A80004231946131D062B15D9033A4FF0FF33B1
:1014B8008B40DB4303F0010393401B01DBB2084A76
:1014C80082F81C334FF08053C2F88030BFF34F8F3F
:1014D800BFF36F8F70470022E8E700BF00ED00E020
:1014E80000E100E04FF080418A6A0132034BB3FB10
:1014F800F2F3B3FBF0F3013BCB627047006CDC0204
:1015080000B595B03022002108A800F02BF900237F
:101518000393049305930693079301931E4A116C52
:1015280041F080511164126C02F080520192019ACC
:1015380002931A4A116841F440411160126802F49A
:1015480040420292029A0222089201210B91102134
:101558000C910E920F93082310936023119312920B
:101568000423139308A8FFF7FBF908B172B6FEE746
:101578000F230393022304938023059300230693E8
:101588000793012103A8FFF739FC08B172B6FEE7FB
:1015980015B05DF804FB00BF003802400070004041
:1015A80008B5FFF75FFDFFF7ABFFFFF7F3FDFFF7A8
:1015B80089FEFFF70DFFFFF74FFF08BD124BDA68F2
:1015C800C2F30222C2F10703042B28BF04231946E1
:1015D800131D062B15D9033A4FF0FF338B40DB431D
:1015E80003F0010393401B01DBB2084A82F8093378
:1015F8004FF40073C2F88030BFF34F8FBFF36F8F83
:1016080070470022E8E700BF00ED00E000E100E0DD
:1016180010B5FFF7C5FF72B6FFF730FF4FF47A70C9
:10162800FFF760FF054C4FF080532360FFF7C6FFBC
:101638004FF40073236062B610BD00BF00E100E004
:1016480008B5012000F034F8FFF7E2FFFEE70000DC
:1016580007494B691A0402F00072DB4303F4007374
:1016680013438B614FF080436FF001021A6170479A
:1016780000040240064B5B6913F0080F06D0054AC8
:10168800136801331360024B08225A61704700BF88
:10169800003C01402C000020002204E000BF013380
:1016A800072BFBD90132824201D20023F8E77047A9
:1016B80010B504E04FF47A70FFF7EEFF2046441EA1
:1016C8000028F7D110BD0000DFF834D0FFF760FD27
:1016D8000C480D490D4A002302E0D458C450043385
:1016E800C4188C42F9D30A4A0A4C002301E013605B
:1016F8000432A242FBD300F011F8FFF7A1FF7047B4
:1017080000000220000000200C000020B417000890
:101718000C00002030000020FEE7000070B5002615
:101728000C4D0D4C641BA410A64209D100F022F800
:1017380000260A4D0A4C641BA410A64205D170BDB0
:1017480055F8043B98470136EEE755F8043B9847AF
:101758000136F2E7AC170008AC170008AC17000810
:10176800B017000803460244934200D1704703F8BB
:10177800011BF9E7F8B500BFF8BC08BC9E467047E6
:0C178800F8B500BFF8BC08BC9E467047D6
:10179400000000000000000001020304060708091D
:0817A40064EAFF7F0100000070
:0417AC00BD01000873
:0417B0009901000893
:0C17B40001000000100000000024F40000
:04000005080016D108
:00000001FF
